:020000040000FA
:06000000FEEF02F0120009
:020006000000F8
:060008008FEF00F0120072
:02000E00C250DE
:08001000020B01E0010E1200D9
:0600180098EF00F0120059
:02001E000001DF
:10002000696B6A6B32D857D851D800016551661197
:10003000FCE1000EE66EE66AE66A7F0EE66EE66AB0
:1000400083EC01F0006E050EE15E0050CF0EE66E0F
:10005000C7EC02F0E55218EC03F007EC00F00009E1
:10006000FCE10CEC03F0F3CF69F0F4CF6AF000018F
:10007000F43407E269510008020E6A5502E28B92DD
:1000800001D08B8215EC03F0D0D70001606B656B5B
:10009000666B010E676F686B926A806A0E0E936ED4
:1000A000816A946A826A700ED310D36E190EE66E5E
:1000B000E66A3C0EE66E23EC02F0E552E552E552AC
:1000C000610EE66EB0EC02F0E55212000C0EC26E4C
:1000D000380EC16E1200D59ECD90830EE66E94EC64
:1000E00002F0E552D596060ECD6ED08EF29AF184CE
:1000F0009D809F90F28CF28EDF0EE66EB10EE66E62
:1001000078EC02F0E552E552DF0EE66EB10EE66ED7
:100110005CEC02F0E552E552D59ECD801200DACFBC
:10012000E4FFE652F2949E96E552E5CFDAFF110025
:10013000D8CFE4FFE0CFE4FFE46EDACFE4FFE2CF14
:10014000DAFFE9CFE4FFEACFE4FFF6CFE4FFF7CF31
:10015000E4FFF5CFE4FFF3CFE4FFF4CFE4FFFACF01
:10016000E4FF00EE04F0020EE80403E3EECFE4FF48
:10017000FBD700EE00F0040EE80403E3EECFE4FF4B
:10018000FBD7E652640E000166AF02D0D89003D0D0
:10019000655D000E665908E29B0EE66EE6685CEC53
:1001A00002F0E552E5520BD0EF0EE66ED80EE66E89
:1001B0005CEC02F0E552E5520001656B666B0001F4
:1001C0006551661104E1898089968A8C10D0320EBF
:1001D000651906E1000E661903E18990898607D04A
:1001E0000F0E651904E1000E661901E18A9C655144
:1001F000010B02E18A8001D08A90652B000E6623F4
:10020000E55200EE03F0040EE80403E3E5CFEDFF52
:10021000FBD700EE05F0020EE80403E3E5CFEDFFA7
:10022000FBD7E5CFFAFFE5CFF4FFE5CFF3FFE5CF4E
:10023000F5FFE5CFF7FFE5CFF6FFE5CFEAFFE5CF26
:10024000E9FFE5CFDAFFE550E5CFE0FFE5CFD8FFE6
:100250001000190EB06EC00E9410946EAD98AD845F
:10026000AC8EAD9C7E98AD8A1200D9CFE6FFE1CF6F
:10027000D9FF030EE126010EDB6A020EDB6A010ED6
:10028000DBCF00F0DB2A020EDBCF01F001E3DB2A3B
:10029000FD0EDB500024E96EFE0EDB500120EA6EFD
:1002A000EFCFDFFFDF50AE6E050EE66EDEEC02F044
:1002B000E552010EDBCF00F0020EDBCF01F0FD0EA8
:1002C000DB500024E96EFE0EDB500120EA6EEF5099
:1002D000D6E1030EE15C02E2E16AE552E16EE5522D
:1002E000E7CFD9FF1200D9CFE6FFE1CFD9FFFE0E4D
:1002F000DB50AE6E050EE66EDEEC02F0E552E55226
:06030000E7CFD9FF120057
:0A030600D9CFE6FFDACFE6FFE1CF22
:10031000D9FFE2CFDAFFC26AC16AFC0EDB50400DA2
:10032000F350C00B006EFC0EDB407F0B3C0B00104B
:10033000C26EFD0EDB50040DF350380B016EFD0E46
:10034000DB380F0B070B006EFD0EDB50800B00102F
:100350000110C16EF90EDBCF00F0FA0EDBCF01F019
:1003600001C000F0016A00C048FFF90EDBCF49FF71
:10037000060E006EFB0EDB50C00B00C0E7FFE7521D
:1003800004E0E8427F0BE706FCE10E01B86FFC0ECB
:10039000DBAE03D09E9C9D8CF28CC280E552E5CFF3
:0803A000DAFFE7CFD9FF1200DC
:0803A800060EF66E000EF76E62
:1003B000000EF86E00010900F550706F0900F5504D
:1003C000716F03E1706701D03DD00900F5506B6F8C
:1003D0000900F5506C6F0900F5506D6F09000900B8
:1003E000F550E96E0900F550EA6E090009000900B0
:1003F000F5506E6F0900F5506F6F09000900F6CFD8
:1004000072F0F7CF73F0F8CF74F06BC0F6FF6CC0EA
:10041000F7FF6DC0F8FF00016E5302E16F5307E074
:100420000900F550EE6E6E07F8E26F07F9D772C05B
:10043000F6FF73C0F7FF74C0F8FF00017007000EED
:06044000715BBFD7120042
:0A044600D9CFE6FFDACFE6FFE1CFE1
:10045000D9FFE2CFDAFFAD6AAC6AFD0EDBB0AD8842
:10046000DBA202D0AD8CAC8CDBB4AD8EDBA602D0AF
:10047000AC8801D0AC8ADBB8AD84DBBAAC86DBAC2F
:1004800002D09D8A01D09D9ADBAE02D09D8801D01A
:100490009D98FB0EDB50B06EFC0EDBCF01F001C06F
:1004A00000F0016A00507F6EAD8AAC8EE552E5CF58
:0804B000DAFFE7CFD9FF1200CB
:0804B800D9CFE6FFDACFE6FF21
:1004C000E1CFD9FFE2CFDAFFE652E652FC0EDBCFF6
:1004D000DEFFDBCFDDFF010EDB50CF6EDF50CE6ED7
:1004E000E552E552E552E5CFDAFFE7CFD9FF12003A
:1004F000D9CFE6FFDACFE6FFE1CFD9FFE2CFDAFFCF
:10050000E652E652FC0EDBCFDEFFDBCFDDFF010E55
:10051000DB50D76EDF50D66EE552E552E552E5CF9F
:08052000DAFFE7CFD9FF12005A
:08052800D9CFE6FFDACFE6FFB0
:10053000E1CFD9FFE2CFDAFFFD0EDB507F0BD56EA6
:10054000D76AD66AF294FD0EDBAE02D0F28A01D0F1
:10055000F29AD58EE552E5CFDAFFE7CFD9FF120048
:10056000D9CFE6FFDACFE6FFE1CFD9FFE2CFDAFF5E
:10057000ADAC04D0AD90000175B3AD80FD0EDB5085
:0E058000AE6EE552E5CFDAFFE7CFD9FF1200ED
:02058E00D9CFC3
:10059000E6FFDACFE6FFE1CFD9FFE2CFDAFFC30E05
:1005A000C214006EFD0EDB407F0B3C0B0010C26ED0
:0C05B000E552E5CFDAFFE7CFD9FF1200DB
:0405BC00FF0EE350FB
:1005C000066E480E01D04C0EE76EE72EFED7E76AA6
:0C05D000E72EFED7062EF7D70000120021
:0405DC00B00EF36EFC
:1005E00000EE00F00E0E01D81200EA6002D0EE6AB2
:0C05F000FCD7F350E9601200EE6AFCD763
:0405FC001CEE00F001
:100600002CEE00F0F86A059CD4EC01F01AEC03F033
:080610000FEC00F0FBD7120013
:08061800C450036E026AC350D6
:0A0620000210F36E03C0F4FF120095
:06062A00C2909D9C12002D
:04063000C282120070
:020634001200B2
:020000040001F9
:01FFFD00FB08
:00000001FF
